:10000000042A00308A000408840A8207003443343A
:1000100061346C34693462347234613474346934F8
:100020006F346E343F342034203400344234693429
:100030007034653464342034573461346C346B3438
:1000400069346E3467343F34003443347934743463
:1000500072346F346E34203454346534633468340D
:100060002E3400344334683461346E346E34653475
:100070006C343A340034563461346C34753465343D
:100080003A3420340034503452343134383400346B
:060090004F344B34003434
:10040800AA018301B72BF000092A831203130C1EDB
:100418000E2A0F2A092A102A7008990008000130AC
:100428004E220030F3000030F2000230F100583064
:10043800F000AB220800FA0010307A020318252ACF
:10044800262A2A2A7A08803E4E22332A7A08EC3E47
:10045800F9007908FA007A08C03E4E22332A0800CB
:10046800FA003F2A7A08840001206C220130F90042
:100478007908FA073F2A7A08031D432A4D2A7A0881
:10048800840001200038031D4A2A4B2A362A4D2AA7
:100498004D2A0800F8008312031307128711780801
:1004A800860087160030F3000030F2000030F100BB
:1004B8003230F000AB228312031387120030F300AE
:1004C8000030F2000030F1003230F000AB220800BA
:1004D800F800831203130712871578088600871619
:1004E8000030F3000030F2000030F1000A30F00074
:1004F800AB228312031387120030F3000030F2009E
:100508000030F1000A30F000AB220800F800F901D1
:10051800FA017208F6007108F50006300310F60CAF
:10052800F50CFF3E031D922A75083F39F70077083E
:10053800F90071083F39F5007508FA0078080722B4
:10054800790807227A080722730807220800730827
:10055800720471047004031DB22AB32AB52ADA2A78
:10056800DA2A0130F4000030F5000030F6000030DF
:10057800F7007408F0027508031C750FC42AC52A11
:10058800F1027608031C760FCA2ACB2AF2027708F2
:10059800031C770FD02AD12AF3027308720471045E
:1005A8007004031DD82AD92AB52ADA2A0800F601C8
:1005B800F31FDF2AE02AE92AF209F309F20A0319EC
:1005C800F30AF6010314F60DE92AF11FEC2AED2AC5
:1005D800F32AF009F109F00A0319F10AF32A71085C
:1005E80070040319F82AF92A2F2BF5010314F50DC5
:1005F800092B01300310F00DF10DFF3E031DFE2AFB
:100608000130F4007408F507092BF11F0C2B0D2B92
:10061800FD2A0F2B0F2B71087302031D152B700871
:100628007202031C182B192B202B7008F202710878
:10063800031CF303F302202B01300310F10CF00C20
:10064800FF3E031D212B0130F502031D2C2B2D2B02
:100658000F2B2F2B2F2B7608031D332B392BF20949
:10066800F309F20A0319F30A392B7308F101F107A8
:100678007208F001F007402B080083120313A10150
:10068800F81F472B482B512BF709F809F70A0319CC
:10069800F80AA1010314A10D512BFA1F542B552B55
:1006A8005F2BF909FA09F90A0319FA0A0130FB0064
:1006B8007B08A1065F2BA201A30178087704031920
:1006C800662B672BA52BA0010314A00D772B0130F7
:1006D8000310F70DF80DFF3E031D6C2B0130FB00D6
:1006E8007B08A007772BF81F7A2B7B2B6B2B7D2B96
:1006F8007D2B01300310A20DA30DFF3E031D7E2BA1
:1007080078087A02031D8A2B77087902031C8D2B3F
:100718008E2B962B7708F9027808031CFA03FA0245
:100728002214962B01300310F80CF70CFF3E031D22
:10073800972B0130A002031DA22BA32B7D2BA52BE9
:10074800A52B2108031DA92BAF2BA209A309A20AD7
:100758000319A30AAF2B2308F801F8072208F701A9
:10076800F707B62B0800831603138601803087002D
:10077800073085001F30990018119816831203134B
:10078800181698170630831603139F0001304E225F
:1007980002304E2206304E220C304E2238304E2285
:1007A8000C308312031397000C309D00FF30831622
:1007B8000313920005308312031392003230950020
:1007C80032309B00132200301F221F303422143095
:1007D8001F223D303422DC30F1000230F2000030BC
:1007E800F3000030F4004A308A22DC30F100023095
:1007F800F2000030F3000030F4004B308A22DC3085
:10080800F1000230F2000030F3000030F4004C3008
:100818008A22DC30F1000230F2000030F3000030B0
:10082800F40047308A22DC30F1000230F200003058
:10083800F3000030F40048308A22DC30F100023046
:10084800F2000030F3000030F40049308A22003012
:10085800F3000330F2000D30F1004030F000AB221D
:1008680083120313AA010314AA0D3A2C132214307D
:100878001F22423034227D2C0518432C442C4E2C48
:1008880002302A02031C492C4A2C5F2C0130AA0290
:100898005F2C5F2C8518512C522C5F2C02302A02B9
:1008A8000318572C582C5F2C0130A9002908AA07D7
:1008B8005F2C5F2C5F2C00301F22692C10303422F3
:1008C800732C01303422732C732C831203132A08DF
:1008D800013A0319622C033A0319652C732C003072
:1008E800F3000030F2007530F1003030F000AB2238
:1008F8007D2C831203130519822C832C402C842C05
:100908000030F3000030F2002730F1001030F00022
:10091800AB228E2C83120313051D932C942C8E2C42
:10092800952C0030F3000030F2002730F100103031
:10093800F000AB22A42C29263A2CB1243A2C3A2CCC
:10094800831203132A08013A03199F2C033A031947
:10095800A12C3A2C3A2C3A2C002883120313A80114
:100968000314A80DB72CDC3083120313A600023041
:10097800A700A401A501132200301F222C30342225
:1009880014301F2242303422242D0518CC2CCD2CB3
:10099800D72C02302802031CD22CD32CE82C01308F
:1009A800A802E82CE82C8518DA2CDB2CE82C20305F
:1009B80028020318E02CE12CE82C0130FC007C080C
:1009C800A807E82CE82CE82C09301F220A308312EB
:1009D800031328020318F12CF22CF82C2808303EB7
:1009E8006C2220306C221A2D0A30F7000030F800F3
:1009F800831203132808FC00FD017C08F9007D0818
:100A0800FA0041237708303E6C220A30F0000030AB
:100A1800F100831203132808FC00FD017C08F20092
:100A28007D08F300DB227008303E6C220030F300B2
:100A38000030F2007530F1003030F000AB22242D88
:100A4800831203130519292D2A2DC92C2B2D0030AB
:100A5800F3000030F2002730F1001030F000AB2234
:100A6800352D83120313051D3A2D3B2D352D3C2DB5
:100A78000030F3000030F2002730F1001030F000B1
:100A8800AB22132200301F2235303422052E0518E0
:100A98004E2D4F2D662D2708803AFF0080307F02AB
:100AA800031D582D01302602031C5B2D5C2D812D62
:100AB800FF3083120313A6070318A70AFF30A707FE
:100AC800812D812D8518692D6A2D812D2708803A61
:100AD800FF0085307F02031D732DAE3026020318F8
:100AE800762D772D812D013083120313A607031865
:100AF800A70A0030A707812D812D8312031325082B
:100B08002706031D892D2408260603198C2D8D2DF3
:100B1800FB2D2708F201F2072608F101F107003042
:100B2800F3000030F400280840388A2283120313A7
:100B38002708A501A5072608A401A40707301F2236
:100B4800E830F7000330F800831203132508FA0190
:100B5800FA072408F901F90741237708303E6C2287
:100B68006430F7000030F800831203132508F301FE
:100B7800F3072408F201F207E830F0000330F1002F
:100B8800DB227108FA01FA077008F901F907412315
:100B98007708303E6C220A30F7000030F8008312E4
:100BA80003132508F301F3072408F201F207643060
:100BB800F0000030F100DB227108FA01FA07700832
:100BC800F901F90741237708303E6C220A30F0001A
:100BD8000030F100831203132508F301F3072408FA
:100BE800F201F207DB227008303E6C22FB2D003048
:100BF800F3000030F2003A30F1009830F000AB22F8
:100C0800052E8312031305190A2E0B2E4B2D0C2EBD
:100C18000030F3000030F2002730F1001030F0000F
:100C2800AB22162E83120313051D1B2E1C2E162E07
:100C38001D2E0030F3000030F2002730F100103094
:100C4800F000AB22B72CB72C08000D301F22203043
:100C58006C2214301F220D3034220030F300013092
:100C6800F2008630F100A030F000AB220830F1002D
:100C78000430F2001E30F3000030F4004A308A22BB
:100C8800B030F1000130F2001E30F3000030F40003
:100C980047308A220830F1000430F2001E30F30099
:100CA8000030F4004B308A22B030F1000130F200FD
:100CB8001E30F3000030F40048308A220030F30080
:100CC8000330F2000D30F1004030F000AB22143058
:100CD800F1000230F2001430F3000030F4004C3020
:100CE8008A22DC30F1000230F2001E30F3000030BE
:100CF800F40047308A22DC30F1000230F2001E3066
:100D0800F3000030F40048308A221430F100023039
:100D1800F2001430F3000030F40049308A22003029
:100D2800F3000430F2009330F100E030F000AB2221
:100D38009D2EA030F1000230F2001430F300003094
:100D4800F4004C308A22A030F1000230F200143056
:100D5800F3000030F40049308A220030F3000330F9
:100D6800F2000D30F1004030F000AB226530F100A8
:100D78000130F2002830F3000030F4004A308A22B3
:100D8800DC30F1000230F2001430F3000030F400DF
:100D98004B308A227F30F1000530F2002830F30012
:100DA8000030F40047308A220830F1000430F200A5
:100DB8000F30F3000030F40048308A221830F10078
:100DC8000330F2000A30F3000030F4004C308A227D
:100DD8001830F1000330F2000A30F3000030F4005C
:100DE80049308A220030F3000630F200DD30F1008D
:100DF800D030F000AB22DC30F1000230F2001430C9
:100E0800F3000030F4004C308A22A430F1000330A3
:100E1800F2001430F3000030F40049308A22003028
:100E2800F3000330F2000D30F1004030F000AB2247
:100E3800B030F1000130F2003C30F3000030F40033
:100E480047308A22B030F1000130F2001E30F30042
:100E58000030F40048308A22DC30F1000230F20021
:100E68001E30F3000030F4004A308A22A430F1002A
:100E78000330F2001E30F3000030F4004C308A22B8
:100E88000030F3000430F2009330F100E030F0005D
:100E9800AB221830F1000330F2001430F3000030B8
:100EA800F40049308A221830F1000330F20014307F
:100EB800F3000030F4004C308A220030F300033095
:100EC800F2000D30F1004030F000AB225330F10059
:100ED8000430F2002830F3000030F40047308A2252
:100EE800DC30F1000230F2001430F3000030F4007E
:100EF80048308A223930F1000030F2002830F300FF
:100F08000030F4004A308A22B030F1000130F2009B
:100F18000F30F3000030F4004B308A22A030F1008B
:100F28000230F2000A30F3000030F40049308A221F
:100F3800A030F1000230F2000A30F3000030F40073
:100F48004C308A220030F3000630F200DD30F10028
:100F5800D030F000AB22DC30F1000230F200143067
:100F6800F3000030F40049308A221430F1000230D6
:100F7800F2001430F3000030F4004C308A220030C4
:100F8800F3000330F2000D30F1004030F000AB22E6
:100F98000830F1000430F2003C30F3000030F40077
:100FA8004A308A220830F1000430F2001E30F30083
:100FB8000030F4004B308A22DC30F1000230F200BD
:100FC8001E30F3000030F40047308A221430F1005C
:100FD8000230F2001E30F3000030F40049308A225B
:100FE8000030F3000430F2009330F100E030F000FC
:080FF800AB229D2E9D2E080086
:02400E00323F3F
:00000001FF
