:100000000A128A15B52F00308A000408840A820774
:100010000034433461346C34693462347234613492
:10002000743469346F346E343F34203420340034F7
:100030004234693470346534643420345734613464
:100040006C346B3469346E3467343F340034433479
:100050007934743472346F346E34203454346534EB
:10006000633468342E3400344334683461346E347D
:100070006E3465346C343A340034563461346C3444
:10008000753465343A3420340034503452343134C9
:0A009000383400344F344B34003490
:10009E00FA0010307A020318552856285E287A087E
:1000AE00803E0A128A1192200A128A116B287A084F
:1000BE00EC3EF9007908FA007A08C03E0A128A115D
:1000CE0092200A128A116B280800FA007F287A08FB
:1000DE0084000A128A1103200A128A110A128A1542
:1000EE00DA270A128A110130F9007908FA077F28F7
:1000FE007A08031D832891287A0884000A128A112F
:10010E0003200A128A110038031D8E288F286E28AC
:10011E00912891280800F800831203130712871103
:10012E007808860087160030F3000030F2000030A9
:10013E00F1003230F0000A128A11B8200A128A1128
:10014E008312031387120030F3000030F2000030E8
:10015E00F1003230F0000A128A11B8200A128A1108
:10016E0008007308720471047004031DBF28C028B0
:10017E00C228E728E7280130F4000030F5000030EF
:10018E00F6000030F7007408F0027508031C750FB6
:10019E00D128D228F1027608031C760FD728D8284A
:1001AE00F2027708031C770FDD28DE28F3027308AE
:1001BE00720471047004031DE528E628C228E7289E
:1001CE000800F800F901FA017208F6007108F5004E
:1001DE0006300310F60CF50CFF3E031DF0287508D3
:1001EE003F39F7007708F90071083F39F5007508B7
:1001FE00FA0078080A128A15BA270A128A117908A3
:10020E000A128A15BA270A128A117A080A128A1550
:10021E00BA270A128A1173080A128A15BA270A1205
:10022E008A110800F601F31F1D291E292729F2093C
:10023E00F309F20A0319F30AF6010314F60D27293E
:10024E00F11F2A292B293129F009F109F00A031986
:10025E00F10A3129710870040319362937296D29DD
:10026E00F5010314F50D472901300310F00DF10DC2
:10027E00FF3E031D3C290130F4007408F5074729A1
:10028E00F11F4A294B293B294D294D29710873022B
:10029E00031D532970087202031C562957295E2923
:1002AE007008F2027108031CF303F3025E29013099
:1002BE000310F10CF00CFF3E031D5F290130F50217
:1002CE00031D6A296B294D296D296D297608031D99
:1002DE0071297729F209F309F20A0319F30A77292A
:1002EE007308F101F1077208F001F0077E2908008A
:1002FE0083120313A101F81F852986298F29F70977
:10030E00F809F70A0319F80AA1010314A10D8F29A0
:10031E00FA1F922993299D29F909FA09F90A031955
:10032E00FA0A0130FB007B08A1069D29A201A30158
:10033E00780877040319A429A529E329A001031439
:10034E00A00DB52901300310F70DF80DFF3E031D6A
:10035E00AA290130FB007B08A007B529F81FB82990
:10036E00B929A929BB29BB2901300310A20DA30D60
:10037E00FF3E031DBC2978087A02031DC8297708A1
:10038E007902031CCB29CC29D4297708F9027808E5
:10039E00031CFA03FA022214D42901300310F80CBC
:1003AE00F70CFF3E031DD5290130A002031DE029E5
:1003BE00E129BB29E329E3292108031DE729ED29BA
:1003CE00A209A309A20A0319A30AED292308F80119
:1003DE00F8072208F701F707F4290800831603131C
:1003EE00860180308700073085001F309900181174
:1003FE0098168312031318169817063083160313D4
:10040E009F0001300A128A1192200A128A110230BC
:10041E000A128A1192200A128A1106300A128A11C1
:10042E0092200A128A110C300A128A1192200A1294
:10043E008A1138300A128A1192200A128A110C304F
:10044E008312031397000C309D00FF3083160313A5
:10045E009200053083120313920032309500323031
:10046E009B000A128A15C6270A128A1100300A1238
:10047E008A114F200A128A111F300A128A116C201B
:10048E000A128A1114300A128A114F200A128A1186
:10049E003D300A128A116C200A128A11DC30F100EA
:1004AE000230F2000030F3000030F4004A300A123D
:1004BE008A11E8200A128A11DC30F1000230F200B3
:1004CE000030F3000030F4004B300A128A11E8209D
:1004DE000A128A11DC30F1000230F2000030F30013
:1004EE000030F4004C300A128A11E8200A128A11E8
:1004FE00DC30F1000230F2000030F3000030F40086
:10050E0047300A128A11E8200A128A11DC30F100F3
:10051E000230F2000030F3000030F40048300A12CE
:10052E008A11E8200A128A11DC30F1000230F20042
:10053E000030F3000030F40049300A128A11E8202E
:10054E000A128A110030F3000330F2000D30F10070
:10055E004030F0000A128A11B8200A128A11831252
:10056E000313AA010314AA0DBC2A0A128A15C62760
:10057E000A128A1114300A128A114F200A128A1195
:10058E0042300A128A116C200A128A111B2B05188E
:10059E00D12AD22ADC2A02302A02031CD72AD82AD0
:1005AE00ED2A0130AA02ED2AED2A8518DF2AE02A6B
:1005BE00ED2A02302A020318E52AE62AED2A013036
:1005CE00A9002908AA07ED2AED2AED2A00300A1201
:1005DE008A114F200A128A11032B10300A128A1127
:1005EE006C200A128A110D2B01300A128A116C200E
:1005FE000A128A110D2B0D2B831203132A08013AAE
:10060E000319F42A033A0319FB2A0D2B0030F300C9
:10061E000030F2007530F1003030F0000A128A110D
:10062E00B8200A128A111B2B831203130519202BD3
:10063E00212BCE2A222B0030F3000030F20027307F
:10064E00F1001030F0000A128A11B8200A128A1135
:10065E00302B83120313051D352B362B302B372BE6
:10066E000030F3000030F2002730F1001030F000BF
:10067E000A128A11B8200A128A11522B0A128A11F2
:10068E005D250A128A11BC2A0A128A1161230A12E6
:10069E008A11BC2ABC2A831203132A08013A0319B1
:1006AE00452B033A03194B2BBC2ABC2ABC2A0A122F
:1006BE008A11002883120313A8010314A80D672BB7
:1006CE00DC3083120313A6000230A700A401A5019B
:1006DE000A128A15C6270A128A1100300A128A11C6
:1006EE004F200A128A112C300A128A116C200A121B
:1006FE008A1114300A128A114F200A128A114230BE
:10070E000A128A116C200A128A11082C0518902BD5
:10071E00912B9B2B02302802031C962B972BAC2B74
:10072E000130A802AC2BAC2B85189E2B9F2BAC2B2B
:10073E00203028020318A42BA52BAC2B0130FC0073
:10074E007C08A807AC2BAC2BAC2B09300A128A11F3
:10075E004F200A128A110A3083120313280203183B
:10076E00B92BBA2BC82B2808303E0A128A15DA2765
:10077E000A128A1120300A128A15DA270A128A11F1
:10078E00FA2B0A30F7000030F80083120313280802
:10079E00FC00FD017C08F9007D08FA000A128A119E
:1007AE007F210A128A117708303E0A128A15DA273B
:1007BE000A128A110A30F0000030F100831203137E
:1007CE002808FC00FD017C08F2007D08F3000A12E7
:1007DE008A1119210A128A117008303E0A128A15DE
:1007EE00DA270A128A110030F3000030F200753059
:1007FE00F1003030F0000A128A11B8200A128A1164
:10080E00082C8312031305190D2C0E2C8D2B0F2C77
:10081E000030F3000030F2002730F1001030F0000D
:10082E000A128A11B8200A128A111D2C8312031380
:10083E00051D222C232C1D2C242C0030F3000030FF
:10084E00F2002730F1001030F0000A128A11B820A1
:10085E000A128A110A128A15C6270A128A11003044
:10086E000A128A114F200A128A1135300A128A1181
:10087E006C200A128A11312D0518462C472C5E2C3D
:10088E002708803AFF0080307F02031D502C013074
:10089E002602031C532C542C792CFF308312031385
:1008AE00A6070318A70AFF30A707792C792C8518FD
:1008BE00612C622C792C2708803AFF0085307F024C
:1008CE00031D6B2CAE30260203186E2C6F2C792C68
:1008DE00013083120313A6070318A70A0030A707D7
:1008EE00792C792C8312031325082706031D812CDE
:1008FE00240826060319842C852C232D2708F201A3
:10090E00F2072608F101F1070030F3000030F40081
:10091E00280840380A128A11E8200A128A11831216
:10092E0003132708A501A5072608A401A40707306D
:10093E000A128A114F200A128A11E830F70003308A
:10094E00F800831203132508FA01FA072408F901A7
:10095E00F9070A128A117F210A128A117708303E8E
:10096E000A128A15DA270A128A116430F70000304B
:10097E00F800831203132508F301F3072408F2018C
:10098E00F207E830F0000330F1000A128A11192143
:10099E000A128A117108FA01FA077008F901F907AB
:1009AE000A128A117F210A128A117708303E0A1222
:1009BE008A15DA270A128A110A30F7000030F80079
:1009CE00831203132508F301F3072408F201F2073B
:1009DE006430F0000030F1000A128A1119210A1257
:1009EE008A117108FA01FA077008F901F9070A125B
:1009FE008A117F210A128A117708303E0A128A154F
:100A0E00DA270A128A110A30F0000030F100831240
:100A1E0003132508F301F3072408F201F2070A1263
:100A2E008A1119210A128A117008303E0A128A158B
:100A3E00DA270A128A11232D0030F3000030F2005B
:100A4E003A30F1009830F0000A128A11B8200A12DA
:100A5E008A11312D831203130519362D372D432C90
:100A6E00382D0030F3000030F2002730F100103046
:100A7E00F0000A128A11B8200A128A11462D83122A
:100A8E000313051D4B2D4C2D462D4D2D0030F3001F
:100A9E000030F2002730F1001030F0000A128A11F7
:100AAE00B8200A128A11672B672B08000D300A1224
:100ABE008A114F200A128A1120300A128A15DA275B
:100ACE000A128A1114300A128A114F200A128A1140
:100ADE000D300A128A116C200A128A110030F300AE
:100AEE000130F2008630F100A030F0000A128A11B7
:100AFE00B8200A128A110830F1000430F2001E30BC
:100B0E00F3000030F4004A300A128A11E8200A126B
:100B1E008A11B030F1000130F2001E30F3000030C7
:100B2E00F40047300A128A11E8200A128A1108309E
:100B3E00F1000430F2001E30F3000030F4004B30B0
:100B4E000A128A11E8200A128A11B030F10001301F
:100B5E00F2001E30F3000030F40048300A128A1101
:100B6E00E8200A128A110030F3000330F2000D3033
:100B7E00F1004030F0000A128A11B8200A128A11D0
:100B8E001430F1000230F2001430F3000030F400A3
:100B9E004C300A128A11E8200A128A11DC30F10058
:100BAE000230F2001E30F3000030F40047300A121B
:100BBE008A11E8200A128A11DC30F1000230F200AC
:100BCE001E30F3000030F40048300A128A11E8207B
:100BDE000A128A111430F1000230F2001430F300C0
:100BEE000030F40049300A128A11E8200A128A11E4
:100BFE000030F3000430F2009330F100E030F000EA
:100C0E000A128A11B8200A128A110D2EA030F10094
:100C1E000230F2001430F3000030F4004C300A12AF
:100C2E008A11E8200A128A11A030F1000230F20077
:100C3E001430F3000030F40049300A128A11E82013
:100C4E000A128A110030F3000330F2000D30F10069
:100C5E004030F0000A128A11B8200A128A1165304B
:100C6E00F1000130F2002830F3000030F4004A3079
:100C7E000A128A11E8200A128A11DC30F1000230C1
:100C8E00F2001430F3000030F4004B300A128A11D7
:100C9E00E8200A128A117F30F1000530F200283068
:100CAE00F3000030F40047300A128A11E8200A12CD
:100CBE008A110830F1000430F2000F30F3000030DA
:100CCE00F40048300A128A11E8200A128A111830EC
:100CDE00F1000330F2000A30F3000030F4004C3023
:100CEE000A128A11E8200A128A111830F100033014
:100CFE00F2000A30F3000030F40049300A128A1173
:100D0E00E8200A128A110030F3000630F200DD30BE
:100D1E00F100D030F0000A128A11B8200A128A119E
:100D2E00DC30F1000230F2001430F3000030F40039
:100D3E004C300A128A11E8200A128A11A430F100EE
:100D4E000330F2001430F3000030F40049300A1280
:100D5E008A11E8200A128A110030F3000330F200E3
:100D6E000D30F1004030F0000A128A11B8200A123C
:100D7E008A11B030F1000130F2003C30F300003047
:100D8E00F40047300A128A11E8200A128A11B03094
:100D9E00F1000130F2001E30F3000030F400483054
:100DAE000A128A11E8200A128A11DC30F100023090
:100DBE00F2001E30F3000030F4004A300A128A119D
:100DCE00E8200A128A11A430F1000330F2001E301E
:100DDE00F3000030F4004C300A128A11E8200A1297
:100DEE008A110030F3000430F2009330F100E0304D
:100DFE00F0000A128A11B8200A128A111830F10076
:100E0E000330F2001430F3000030F40049300A12BF
:100E1E008A11E8200A128A111830F1000330F2000C
:100E2E001430F3000030F4004C300A128A11E8201E
:100E3E000A128A110030F3000330F2000D30F10077
:100E4E004030F0000A128A11B8200A128A1153306B
:100E5E00F1000430F2002830F3000030F400473087
:100E6E000A128A11E8200A128A11DC30F1000230CF
:100E7E00F2001430F3000030F40048300A128A11E8
:100E8E00E8200A128A113930F1000030F2002830C1
:100E9E00F3000030F4004A300A128A11E8200A12D8
:100EAE008A11B030F1000130F2000F30F300003043
:100EBE00F4004B300A128A11E8200A128A11A0306F
:100ECE00F1000230F2000A30F3000030F400493035
:100EDE000A128A11E8200A128A11A030F10002309B
:100EEE00F2000A30F3000030F4004C300A128A117E
:100EFE00E8200A128A110030F3000630F200DD30CD
:100F0E00F100D030F0000A128A11B8200A128A11AC
:100F1E00DC30F1000230F2001430F3000030F40047
:100F2E0049300A128A11E8200A128A111430F1008F
:100F3E000230F2001430F3000030F4004C300A128C
:100F4E008A11E8200A128A110030F3000330F200F1
:100F5E000D30F1004030F0000A128A11B8200A124A
:100F6E008A110830F1000430F2003C30F3000030FA
:100F7E00F4004A300A128A11E8200A128A11083047
:100F8E00F1000430F2001E30F3000030F4004B305C
:100F9E000A128A11E8200A128A11DC30F10002309E
:100FAE00F2001E30F3000030F40047300A128A11AE
:100FBE00E8200A128A111430F1000230F2001E30BD
:100FCE00F3000030F40049300A128A11E8200A12A8
:100FDE008A110030F3000430F2009330F100E0305B
:100FEE00F0000A128A11B8200A128A110D2E0D2E47
:020FFE000800E9
:101F6A00AA0183010A128A11F529F000BC2F8312F3
:101F7A0003130C1EC12FC22FBC2FC32F7008990048
:101F8A00080001300A128A1192200A128A150030BA
:101F9A00F3000030F2000230F1005830F0000A126B
:101FAA008A11B8200A128A150800F800831203134E
:101FBA00071287157808860087160030F30000306C
:101FCA00F2000030F1000A30F0000A128A11B8203B
:101FDA000A128A158312031387120030F3000030A5
:101FEA00F2000030F1000A30F0000A128A11B8201B
:061FFA000A128A1508001E
:02400E00323F3F
:00000001FF
