:100000000A128A15A42F00308A000408840A820785
:100010000034433461346C34693462347234613492
:10002000743469346F346E343F34203420340034F7
:100030004234693470346534643420345734613464
:100040006C346B3469346E3467343F340034433479
:100050007934743472346F346E34203454346534EB
:10006000633468342E3400344334683461346E347D
:100070006E3465346C343A340034563461346C3444
:10008000753465343A3420340034503452343134C9
:10009000383400344F344B340034F0004F2883128E
:1000A00003130C1E542855284F2856287008990011
:1000B0000800F800831203130712871578088600DA
:1000C00087160030F3000030F2000030F1000A30F3
:1000D000F0000A128A11A5200A128A118312031352
:1000E00087120030F3000030F2000030F1000A30D7
:1000F000F0000A128A11A5200A128A110800FA00DB
:1001000092287A0884000A128A1103200A128A119E
:100110000A128A1159200A128A110130F90079084D
:10012000FA0792287A08031D9628A4287A088400E2
:100130000A128A1103200A128A110038031DA1280D
:10014000A2288128A428A428080073087204710436
:100150007004031DAC28AD28AF28D428D428013062
:10016000F4000030F5000030F6000030F7007408AD
:10017000F0027508031C750FBE28BF28F10276082F
:10018000031C760FC428C528F2027708031C770FDA
:10019000CA28CB28F3027308720471047004031D8B
:1001A000D228D328AF28D4280800F8000310003044
:1001B00003180130F9000310003003180130FA0071
:1001C0007208F6007108F50006300310F60CF50C05
:1001D000FF3E031DE52875083F39F7007708F90051
:1001E00071083F39F5007508FA0078080A128A117B
:1001F0004D200A128A1179080A128A114D200A121A
:100200008A117A080A128A114D200A128A1173087B
:100210000A128A114D200A128A11080003100030B8
:1002200003180130F600F31F162917292029F209B7
:10023000F309F20A0319F30AF6010314F60D202953
:10024000F11F232924292A29F009F109F00A0319A9
:10025000F10A2A297108700403192F293029662907
:10026000F5010314F50D402901300310F00DF10DD7
:10027000FF3E031D35290130F4007408F5074029BD
:10028000F11F43294429342946294629710873025C
:10029000031D4C2970087202031C4F29502957294D
:1002A0007008F2027108031CF303F30257290130AE
:1002B0000310F10CF00CFF3E031D58290130F5022C
:1002C000031D632964294629662966297608031DCA
:1002D0006A297029F209F309F20A0319F30A70294D
:1002E0007308F101F1077208F001F007772908009F
:1002F000031000300318013083120313A100F81F0C
:10030000822983298C29F709F809F70A0319F80AC1
:10031000A1010314A10D8C29FA1F8F299029992975
:10032000F909FA09F90A0319FA0A0130FB007B08F6
:10033000A1060030A2000030A3007808770403195A
:10034000A229A329E129A0010314A00DB32901309A
:100350000310F70DF80DFF3E031DA8290130FB0027
:100360007B08A007B329F81FB629B729A729B929FF
:10037000B92901300310A20DA30DFF3E031DBA29B8
:1003800078087A02031DC62977087902031CC92957
:10039000CA29D2297708F9027808031CFA03FA025D
:1003A0002214D22901300310F80CF70CFF3E031D74
:1003B000D3290130A002031DDE29DF29B929E12953
:1003C000E1292108031DE529EB29A209A309A20AB5
:1003D0000319A30AEB292308F801F8072208F701FB
:1003E000F707F2290800831603138601803087007F
:1003F000073085001F3099001811981683120313D7
:10040000181698170630831603139F0001300A123E
:100410008A15DA270A128A1102300A128A15DA2797
:100420000A128A1106300A128A15DA270A128A116C
:100430000C300A128A15DA270A128A1138300A1289
:100440008A15DA270A128A110C30831203139700D7
:100450000C309D00FF308316031392000530831289
:10046000031392003230950032309B000A128A1535
:10047000A9270A128A1100300A128A15BD270A120A
:100480008A111F300A128A117F200A128A11143031
:100490000A128A15BD270A128A113D300A128A11E2
:1004A0007F200A128A11DC30F1000230F2000030A5
:1004B000F3000030F4004A300A128A11D5200A12E3
:1004C0008A11DC30F1000230F2000030F30000301D
:1004D000F4004B300A128A11D5200A128A11DC303E
:1004E000F1000230F2000030F3000030F4004C3034
:1004F0000A128A11D5200A128A11DC30F10002306A
:10050000F2000030F3000030F40047300A128A1184
:10051000D5200A128A11DC30F1000230F2000030DE
:10052000F3000030F40048300A128A11D5200A1274
:100530008A11DC30F1000230F2000030F3000030AC
:10054000F40049300A128A11D5200A128A110030AB
:10055000F3000330F2000D30F1004030F0000A12D9
:100560008A11A5200A128A1183120313AA01031407
:10057000AA0DBA2A0A128A15A9270A128A1114305A
:100580000A128A15BD270A128A1142300A128A11EC
:100590007F200A128A11192B0518CF2AD02ADA2AAD
:1005A00002302A02031CD52AD62AEB2A0130AA02DD
:1005B000EB2AEB2A8518DD2ADE2AEB2A02302A02F2
:1005C0000318E32AE42AEB2A0130A9002908AA0724
:1005D000EB2AEB2AEB2A00300A128A15BD270A12F1
:1005E0008A11012B10300A128A117F200A128A11F7
:1005F0000B2B01300A128A117F200A128A110B2B51
:100600000B2B831203132A08013A0319F22A033A27
:100610000319F92A0B2B0030F3000030F20075307B
:10062000F1003030F0000A128A11A5200A128A1156
:10063000192B8312031305191E2B1F2BCC2A202BD9
:100640000030F3000030F2002730F1001030F000ED
:100650000A128A11A5200A128A112E2B8312031363
:10066000051D332B342B2E2B352B0030F30000309F
:10067000F2002730F1001030F0000A128A11A52094
:100680000A128A11502B0A128A115D250A128A1148
:10069000BA2A0A128A115F230A128A11BA2ABA2ABE
:1006A000831203132A08013A0319432B033A03194F
:1006B000492BBA2ABA2ABA2A0A128A1100288312A6
:1006C0000313A8010314A80D652BDC308312031358
:1006D000A6000230A7000030A4000030A5000A12D6
:1006E0008A15A9270A128A1100300A128A15BD2715
:1006F0000A128A112C300A128A117F200A128A11DA
:1007000014300A128A15BD270A128A1142300A12C1
:100710008A117F200A128A11082C0518902B912B20
:100720009B2B02302802031C962B972BAC2B0130FD
:10073000A802AC2BAC2B85189E2B9F2BAC2B20300A
:1007400028020318A42BA52BAC2B0130FC007C083D
:10075000A807AC2BAC2BAC2B09300A128A15BD278D
:100760000A128A110A308312031328020318B92BC4
:10077000BA2BC82B2808303E0A128A1159200A12B7
:100780008A1120300A128A1159200A128A11FA2B72
:100790000A30F7000030F800831203132808FC0029
:1007A000FD017C08F9007D08FA000A128A117821FF
:1007B0000A128A117708303E0A128A1159200A1249
:1007C0008A110A30F0000030F10083120313280868
:1007D000FC00FD017C08F2007D08F3000A128A117A
:1007E0000E210A128A117008303E0A128A1159200D
:1007F0000A128A110030F3000030F2007530F10067
:100800003030F0000A128A11A5200A128A11082C31
:100810008312031305190D2C0E2C8D2B0F2C003079
:10082000F3000030F2002730F1001030F0000A121F
:100830008A11A5200A128A111D2C83120313051D8B
:10084000222C232C1D2C242C0030F3000030F2002D
:100850002730F1001030F0000A128A11A5200A1288
:100860008A110A128A15A9270A128A1100300A125F
:100870008A15BD270A128A1135300A128A117F2083
:100880000A128A11312D0518462C472C5E2C270898
:10089000803AFF0080307F02031D502C0130260279
:1008A000031C532C542C792CFF3083120313A607FE
:1008B0000318A70AFF30A707792C792C8518612C1B
:1008C000622C792C2708803AFF0085307F02031DB7
:1008D0006B2CAE30260203186E2C6F2C792C013055
:1008E00083120313A6070318A70A0030A707792C61
:1008F000792C8312031325082706031D812C240855
:1009000026060319842C852C232D2708F201F207D3
:100910002608F101F1070030F3000030F400280848
:1009200040380A128A11D5200A128A118312031341
:100930002708A501A5072608A401A40707300A1265
:100940008A15BD270A128A11E830F7000330F80033
:10095000831203132508FA01FA072408F901F9079D
:100960000A128A1178210A128A117708303E0A1277
:100970008A1159200A128A116430F7000030F800F9
:10098000831203132508F301F3072408F201F20789
:10099000E830F0000330F1000A128A110E210A1229
:1009A0008A117108FA01FA077008F901F9070A12A9
:1009B0008A1178210A128A117708303E0A128A11A8
:1009C00059200A128A110A30F7000030F800831209
:1009D00003132508F301F3072408F201F20764303A
:1009E000F0000030F1000A128A110E210A128A1159
:1009F0007108FA01FA077008F901F9070A128A1159
:100A000078210A128A117708303E0A128A11592079
:100A10000A128A110A30F0000030F1008312031329
:100A20002508F301F3072408F201F2070A128A11DC
:100A30000E210A128A117008303E0A128A115920BA
:100A40000A128A11232D0030F3000030F2003A30F0
:100A5000F1009830F0000A128A11A5200A128A11BA
:100A6000312D831203130519362D372D432C382DC4
:100A70000030F3000030F2002730F1001030F000B9
:100A80000A128A11A5200A128A11462D8312031315
:100A9000051D4B2D4C2D462D4D2D0030F300003003
:100AA000F2002730F1001030F0000A128A11A52060
:100AB0000A128A11652B652B08000D300A128A155F
:100AC000BD270A128A1120300A128A1159200A12EF
:100AD0008A1114300A128A15BD270A128A110D30A4
:100AE0000A128A117F200A128A110030F3000130A5
:100AF000F2008630F100A030F0000A128A11A52021
:100B00000A128A110830F1000430F2001E30F3009E
:100B10000030F4004A300A128A11D5200A128A11D4
:100B2000B030F1000130F2001E30F3000030F4006C
:100B300047300A128A11D5200A128A110830F100B2
:100B40000430F2001E30F3000030F4004B300A1283
:100B50008A11D5200A128A11B030F1000130F2005A
:100B60001E30F3000030F40048300A128A11D520FC
:100B70000A128A110030F3000330F2000D30F10048
:100B80004030F0000A128A11A5200A128A1114308E
:100B9000F1000230F2001430F3000030F4004C3069
:100BA0000A128A11D5200A128A11DC30F1000230B3
:100BB000F2001E30F3000030F40047300A128A11B0
:100BC000D5200A128A11DC30F1000230F2001E300A
:100BD000F3000030F40048300A128A11D5200A12BE
:100BE0008A111430F1000230F2001430F3000030AA
:100BF000F40049300A128A11D5200A128A110030F5
:100C0000F3000430F2009330F100E030F0000A12FB
:100C10008A11A5200A128A110D2EA030F10002308F
:100C2000F2001430F3000030F4004C300A128A1144
:100C3000D5200A128A11A030F1000230F2001430DF
:100C4000F3000030F40049300A128A11D5200A124C
:100C50008A110030F3000330F2000D30F100403013
:100C6000F0000A128A11A5200A128A116530F100DB
:100C70000130F2002830F3000030F4004A300A124C
:100C80008A11D5200A128A11DC30F1000230F200FC
:100C90001430F3000030F4004B300A128A11D520D2
:100CA0000A128A117F30F1000530F2002830F3007B
:100CB0000030F40047300A128A11D5200A128A1136
:100CC0000830F1000430F2000F30F3000030F4007F
:100CD00048300A128A11D5200A128A111830F10000
:100CE0000330F2000A30F3000030F4004C300A12F6
:100CF0008A11D5200A128A111830F1000330F2004F
:100D00000A30F3000030F40049300A128A11D5206D
:100D10000A128A110030F3000630F200DD30F100D3
:100D2000D030F0000A128A11A5200A128A11DC3094
:100D3000F1000230F2001430F3000030F4004C30C7
:100D40000A128A11D5200A128A11A430F100033048
:100D5000F2001430F3000030F40049300A128A1116
:100D6000D5200A128A110030F3000330F2000D3052
:100D7000F1004030F0000A128A11A5200A128A11EF
:100D8000B030F1000130F2003C30F3000030F400EC
:100D900047300A128A11D5200A128A11B030F100A8
:100DA0000130F2001E30F3000030F40048300A1227
:100DB0008A11D5200A128A11DC30F1000230F200CB
:100DC0001E30F3000030F4004A300A128A11D52098
:100DD0000A128A11A430F1000330F2001E30F30031
:100DE0000030F4004C300A128A11D5200A128A1100
:100DF0000030F3000430F2009330F100E030F000F6
:100E00000A128A11A5200A128A111830F100033043
:100E1000F2001430F3000030F40049300A128A1155
:100E2000D5200A128A111830F1000330F200143074
:100E3000F3000030F4004C300A128A11D5200A1257
:100E40008A110030F3000330F2000D30F100403021
:100E5000F0000A128A11A5200A128A115330F100FB
:100E60000430F2002830F3000030F40047300A125A
:100E70008A11D5200A128A11DC30F1000230F2000A
:100E80001430F3000030F40048300A128A11D520E3
:100E90000A128A113930F1000030F2002830F300D4
:100EA0000030F4004A300A128A11D5200A128A1141
:100EB000B030F1000130F2000F30F3000030F400E8
:100EC0004B300A128A11D5200A128A11A030F10083
:100ED0000230F2000A30F3000030F40049300A1208
:100EE0008A11D5200A128A11A030F1000230F200D6
:100EF0000A30F3000030F4004C300A128A11D52079
:100F00000A128A110030F3000630F200DD30F100E1
:100F1000D030F0000A128A11A5200A128A11DC30A2
:100F2000F1000230F2001430F3000030F4004930D8
:100F30000A128A11D5200A128A111430F1000230E7
:100F4000F2001430F3000030F4004C300A128A1121
:100F5000D5200A128A110030F3000330F2000D3060
:100F6000F1004030F0000A128A11A5200A128A11FD
:100F70000830F1000430F2003C30F3000030F4009F
:100F80004A300A128A11D5200A128A110830F1005B
:100F90000430F2001E30F3000030F4004B300A122F
:100FA0008A11D5200A128A11DC30F1000230F200D9
:100FB0001E30F3000030F40047300A128A11D520A9
:100FC0000A128A111430F1000230F2001E30F300D0
:100FD0000030F40049300A128A11D5200A128A1111
:100FE0000030F3000430F2009330F100E030F00004
:100FF0000A128A11A5200A128A110D2E0D2E080040
:101F4800AA0183010A128A11F32901300A128A159B
:101F5800DA270A128A150030F3000030F200023046
:101F6800F1005830F0000A128A11A5200A128A15C9
:101F78000800FA0010307A020318C32FC42FCC2FA0
:101F88007A08803E0A128A15DA270A128A15D92F8A
:101F98007A08EC3EF9007908FA007A08C03E0A127D
:101FA8008A15DA270A128A15D92F0800F800831231
:101FB8000313071287117808860087160030F3008C
:101FC8000030F2000030F1003230F0000A128A11BD
:101FD800A5200A128A158312031387120030F30012
:101FE8000030F2000030F1003230F0000A128A119D
:081FF800A5200A128A15080059
:02400E00323F3F
:00000001FF
