:100000000A128A11FB2F00308A000408840A820732
:100010000034433461346C34693462347234613492
:10002000743469346F346E343F34203420340034F7
:100030004234693470346534643420345734613464
:100040006C346B3469346E3467343F340034433479
:100050007934743472346F346E34203454346534EB
:10006000633468342E3400344334683461346E347D
:100070006E3465346C343A340034563461346C3444
:10008000753465343A3420340034503452343134C9
:0A009000383400344F344B34003490
:10019000F000831203130C1EC92870089900080090
:1001A00001300A128A113A210A128A110030F30032
:1001B0000030F2000230F1005830F0000A128A11CB
:1001C00017210800FA0010307A020318ED287A0887
:1001D000803E0A128A113A2108007A08EC3EF900A2
:1001E0007908FA007A08C03E0A128A113A210800FA
:1001F000FA007A08031908007A0884000A128A11A2
:1002000003200A128A110038031908007A088400B2
:100210000A128A1103200A128A110A128A115E2117
:100220000A128A110130F9007908FA07F9287308CF
:10023000720471047004031908000130F4000030E6
:10024000F5000030F6000030F7007408F002750881
:10025000031C750F2C292D29F1027608031C760F3B
:1002600032293329F2027708031C770F382917291E
:10027000F3021729F8008312031307128711780875
:10028000860087160030F3000030F2000030F100E5
:100290003230F0000A128A1117210A128A118312D1
:1002A000031387120030F3000030F2000030F10039
:1002B0003230F0000A128A1117210800F800831268
:1002C0000313071287157808860087160030F3009D
:1002D0000030F2000030F1000A30F0000A128A11FA
:1002E00017210A128A118312031387120030F300B8
:1002F0000030F2000030F1000A30F0000A128A11DA
:1003000017210800F800F901FA017208F6007108D7
:10031000F50006300310F60CF50CFF3E031D8A298C
:1003200075083F39F7007708F90071083F39F50083
:100330007508FA0078080A128A11C8200A128A1170
:1003400079080A128A11C8200A128A117A080A1238
:100350008A11C8200A128A1173080A128A11C82049
:100360000800F601F31FBB29F209F309F20A031989
:10037000F30AF601F60AF11FC229F009F109F00AA1
:100380000319F10A710870040319EF29F501F50A40
:10039000F11BD62901300310F00DF10DFF3E031DB6
:1003A000CB290130F4007408F507C82971087302DD
:1003B000031DDC2970087202031CE4297008F20294
:1003C0007108031CF303F30201300310F10CF00C6D
:1003D000FF3E031DE5290130F502031DD6297608ED
:1003E0000319F729F209F309F20A0319F30A73084A
:1003F000F101F1077208F001F007080083120313FE
:10040000A101F81F0A2AF709F809F70A0319F80ADF
:10041000A101A10AFA1F152AF909FA09F90A031913
:10042000FA0A0130FB007B08A106A201A3017808AB
:10043000770403194C2AA001A00AF81B2B2A0130CB
:100440000310F70DF80DFF3E031D202A0130FB00BD
:100450007B08A0071D2A01300310A20DA30DFF3E4B
:10046000031D2C2A78087A02031D382A770879029E
:10047000031C412A7708F9027808031CFA03FA02E0
:10048000221401300310F80CF70CFF3E031D422A22
:100490000130A002031D2B2A21080319542AA209A6
:1004A000A309A20A0319A30A2308F801F8072208DE
:1004B000F701F707080083160313860180308700D1
:1004C000073085001F309900181198168312031306
:1004D000181698170630831603139F0001300A126E
:1004E0008A113A210A128A1102300A128A113A211B
:1004F0000A128A1106300A128A113A210A128A1146
:100500000C300A128A113A210A128A1138300A1262
:100510008A113A210A128A110C30831203139700B0
:100520000C309D00FF3083160313920005308312B8
:10053000031392003230950032309B000A128A1168
:10054000D0200A128A1100300A128A11E2200A12FF
:100550008A111F300A128A11F8200A128A111430E7
:100560000A128A11E2200A128A113D300A128A11F7
:10057000F8200A128A11DC30F1000230F20000305B
:10058000F3000030F4004A300A128A1182210A1264
:100590008A11DC30F1000230F2000030F30000304C
:1005A000F4004B300A128A1182210A128A11DC30BF
:1005B000F1000230F2000030F3000030F4004C3063
:1005C0000A128A1182210A128A11DC30F1000230EB
:1005D000F2000030F3000030F40047300A128A11B4
:1005E00082210A128A11DC30F1000230F200003060
:1005F000F3000030F40048300A128A1182210A12F6
:100600008A11DC30F1000230F2000030F3000030DB
:10061000F40049300A128A1182210A128A1100302C
:10062000F3000330F2000D30F1004030F0000A1208
:100630008A1117210A128A1183120313AA01AA0A26
:100640000A128A11D0200A128A1114300A128A1151
:10065000E2200A128A1142300A128A11F8200A1284
:100660008A1183120313051D752B05183E2B0230CA
:100670002A02031C482B0130AA02482B8518482B5C
:1006800002302A020318482B0130A9002908AA07C2
:1006900000300A128A11E2200A128A115D2B1030F2
:1006A0000A128A11F8200A128A11672B01300A12E5
:1006B0008A11F8200A128A11672B831203132A0861
:1006C000013A03194F2B033A0319562B672B0030BD
:1006D000F3000030F2007530F1003030F0000A1203
:1006E0008A1117210A128A11312B0030F3000030D1
:1006F000F2002730F1001030F0000A128A111721A1
:100700000A128A1183120313051D822B0030F30095
:100710000030F2002730F1001030F0000A128A1188
:1007200017210A128A11A02B0A128A1171250A12A6
:100730008A11202B0A128A11AB230A128A11202B4C
:10074000831203132A08013A0319942B033A03195D
:100750009A2B202B202B83120313A801A80ADC302C
:1007600083120313A6000230A700A401A5010A12F8
:100770008A11D0200A128A1100300A128A11E2204E
:100780000A128A112C300A128A11F8200A128A11D0
:1007900014300A128A11E2200A128A1142300A1217
:1007A0008A11F8200A128A1183120313051D402CA6
:1007B0000518E12B02302802031CEB2B0130A802A4
:1007C000EB2B8518EB2B203028020318EB2B013084
:1007D000FC007C08A80709300A128A11E2200A12DC
:1007E0008A110A308312031328020318002C2808E8
:1007F000303E0A128A115E210A128A1120302D2CF5
:100800000A30F7000030F800831203132808FC00B8
:10081000FD017C08F9007D08FA000A128A11FE2108
:100820000A128A117708303E0A128A115E210A12D2
:100830008A110A30F0000030F100831203132808F7
:10084000FC00FD017C08F2007D08F3000A128A1109
:10085000B1210A128A117008303E0A128A115E21F3
:100860000A128A110030F3000030F2007530F100F6
:100870003030F0000A128A1117210A128A11D42B83
:100880000030F3000030F2002730F1001030F000AB
:100890000A128A1117210A128A1183120313051DE5
:1008A0004D2C0030F3000030F2002730F100103002
:1008B000F0000A128A1117210A128A110A128A11EB
:1008C000D0200A128A1100300A128A11E2200A127C
:1008D0008A1135300A128A11F8200A128A118312FD
:1008E0000313051D522D0518882C2708803AFF0098
:1008F00080307F02031D7E2C01302602031C9D2CBC
:10090000FF3083120313A6070318A70AFF309C2C9D
:1009100085189D2C2708803AFF0085307F02031D33
:10092000932CAE30260203189D2C01308312031342
:10093000A6070318A70A0030A70783120313250888
:100940002706031DA52C240826060319442D270875
:10095000F201F2072608F101F1070030F300003040
:10096000F400280840380A128A1182210A128A11DA
:10097000831203132708A501A5072608A401A407CD
:1009800007300A128A11E2200A128A11E830F700B1
:100990000330F800831203132508FA01FA0724082C
:1009A000F901F9070A128A11FE210A128A11770841
:1009B000303E0A128A115E210A128A116430F70051
:1009C0000030F800831203132508F301F30724080D
:1009D000F201F207E830F0000330F1000A128A1148
:1009E000B1210A128A117108FA01FA077008F90197
:1009F000F9070A128A11FE210A128A117708303E7D
:100A00000A128A115E210A128A110A30F700003098
:100A1000F800831203132508F301F3072408F201F9
:100A2000F2076430F0000030F1000A128A11B1219F
:100A30000A128A117108FA01FA077008F901F90718
:100A40000A128A11FE210A128A117708303E0A1210
:100A50008A115E210A128A110A30F0000030F1007A
:100A6000831203132508F301F3072408F201F207A8
:100A70000A128A11B1210A128A117008303E0A1234
:100A80008A115E210A128A110030F3000030F20050
:100A90003A30F1009830F0000A128A1117210A1238
:100AA0008A116F2C0030F3000030F2002730F10083
:100AB0001030F0000A128A1117210A128A118312CB
:100AC0000313051D5F2D0030F3000030F2002730C6
:100AD000F1001030F0000A128A1117210A128A114F
:100AE000AF2B0D300A128A11E2200A128A1120302F
:100AF0000A128A115E210A128A1114300A128A110E
:100B0000E2200A128A110D300A128A11F8200A1204
:100B10008A110030F3000130F2008630F100A0307D
:100B2000F0000A128A1117210A128A110830F10006
:100B30000430F2001E30F3000030F4004A300A1294
:100B40008A1182210A128A11B030F1000130F200BC
:100B50001E30F3000030F40047300A128A1182215F
:100B60000A128A110830F1000430F2001E30F3003E
:100B70000030F4004B300A128A1182210A128A11C5
:100B8000B030F1000130F2001E30F3000030F4000C
:100B900048300A128A1182210A128A110030F300A9
:100BA0000330F2000D30F1004030F0000A128A11DB
:100BB00017210A128A111430F1000230F2001430A9
:100BC000F3000030F4004C300A128A1182210A121C
:100BD0008A11DC30F1000230F2001E30F3000030E8
:100BE000F40047300A128A1182210A128A11DC307D
:100BF000F1000230F2001E30F3000030F400483003
:100C00000A128A1182210A128A111430F10002306C
:100C1000F2001430F3000030F40049300A128A1157
:100C200082210A128A110030F3000430F20093305E
:100C3000F100E030F0000A128A1117210A128A111D
:100C4000A030F1000230F2001430F3000030F40064
:100C50004C300A128A1182210A128A11A030F10046
:100C60000230F2001430F3000030F40049300A1270
:100C70008A1182210A128A110030F3000330F20037
:100C80000D30F1004030F0000A128A1117210A12CB
:100C90008A116530F1000130F2002830F300003095
:100CA000F4004A300A128A1182210A128A11DC30B9
:100CB000F1000230F2001430F3000030F4004B3049
:100CC0000A128A1182210A128A117F30F10005303E
:100CD000F2002830F3000030F40047300A128A1185
:100CE00082210A128A110830F1000430F2000F301C
:100CF000F3000030F40048300A128A1182210A12EF
:100D00008A111830F1000330F2000A30F30000308D
:100D1000F4004C300A128A1182210A128A1118300A
:100D2000F1000330F2000A30F3000030F4004930E3
:100D30000A128A1182210A128A110030F300063049
:100D4000F200DD30F100D030F0000A128A111721D4
:100D50000A128A11DC30F1000230F2001430F30084
:100D60000030F4004C300A128A1182210A128A11D2
:100D7000A430F1000330F2001430F3000030F4002E
:100D800049300A128A1182210A128A110030F300B6
:100D90000330F2000D30F1004030F0000A128A11E9
:100DA00017210A128A11B030F1000130F2003C30F4
:100DB000F3000030F40047300A128A1182210A122F
:100DC0008A11B030F1000130F2001E30F300003023
:100DD000F40048300A128A1182210A128A11DC308A
:100DE000F1000230F2001E30F3000030F4004A300F
:100DF0000A128A1182210A128A11A430F1000330EA
:100E0000F2001E30F3000030F4004C300A128A1158
:100E100082210A128A110030F3000430F20093306C
:100E2000F100E030F0000A128A1117210A128A112B
:100E30001830F1000330F2001430F3000030F400F9
:100E400049300A128A1182210A128A111830F100DF
:100E50000330F2001430F3000030F4004C300A127A
:100E60008A1182210A128A110030F3000330F20045
:100E70000D30F1004030F0000A128A1117210A12D9
:100E80008A115330F1000430F2002830F3000030B2
:100E9000F40047300A128A1182210A128A11DC30CA
:100EA000F1000230F2001430F3000030F40048305A
:100EB0000A128A1182210A128A113930F100003097
:100EC000F2002830F3000030F4004A300A128A1190
:100ED00082210A128A11B030F1000130F2000F3085
:100EE000F3000030F4004B300A128A1182210A12FA
:100EF0008A11A030F1000230F2000A30F300003015
:100F0000F40049300A128A1182210A128A11A03093
:100F1000F1000230F2000A30F3000030F4004C30EF
:100F20000A128A1182210A128A110030F300063057
:100F3000F200DD30F100D030F0000A128A111721E2
:100F40000A128A11DC30F1000230F2001430F30092
:100F50000030F40049300A128A1182210A128A11E3
:100F60001430F1000230F2001430F3000030F400CD
:100F70004C300A128A1182210A128A110030F300C1
:100F80000330F2000D30F1004030F0000A128A11F7
:100F900017210A128A110830F1000430F2003C30A7
:100FA000F3000030F4004A300A128A1182210A123A
:100FB0008A110830F1000430F2001E30F3000030D6
:100FC000F4004B300A128A1182210A128A11DC3095
:100FD000F1000230F2001E30F3000030F400473020
:100FE0000A128A1182210A128A111430F100023089
:100FF000F2001E300A2EAA0183010A128A115B2A0E
:02400E0032FF7F
:00000001FF
